{
  "_format": "hh-sol-artifact-1",
  "contractName": "TodoList",
  "sourceName": "contracts/TodoList.sol",
  "abi": [
    {
      "inputs": [],
      "stateMutability": "nonpayable",
      "type": "constructor"
    },
    {
      "anonymous": false,
      "inputs": [
        {
          "indexed": false,
          "internalType": "uint256",
          "name": "id",
          "type": "uint256"
        },
        {
          "indexed": false,
          "internalType": "bool",
          "name": "completed",
          "type": "bool"
        }
      ],
      "name": "TaskCompleted",
      "type": "event"
    },
    {
      "anonymous": false,
      "inputs": [
        {
          "indexed": false,
          "internalType": "uint256",
          "name": "id",
          "type": "uint256"
        },
        {
          "indexed": false,
          "internalType": "string",
          "name": "content",
          "type": "string"
        },
        {
          "indexed": false,
          "internalType": "bool",
          "name": "completed",
          "type": "bool"
        }
      ],
      "name": "TaskCreated",
      "type": "event"
    },
    {
      "inputs": [
        {
          "internalType": "string",
          "name": "_content",
          "type": "string"
        }
      ],
      "name": "createTask",
      "outputs": [],
      "stateMutability": "nonpayable",
      "type": "function"
    },
    {
      "inputs": [],
      "name": "taskCount",
      "outputs": [
        {
          "internalType": "uint256",
          "name": "",
          "type": "uint256"
        }
      ],
      "stateMutability": "view",
      "type": "function"
    },
    {
      "inputs": [
        {
          "internalType": "uint256",
          "name": "",
          "type": "uint256"
        }
      ],
      "name": "tasks",
      "outputs": [
        {
          "internalType": "uint256",
          "name": "id",
          "type": "uint256"
        },
        {
          "internalType": "string",
          "name": "content",
          "type": "string"
        },
        {
          "internalType": "bool",
          "name": "completed",
          "type": "bool"
        }
      ],
      "stateMutability": "view",
      "type": "function"
    },
    {
      "inputs": [
        {
          "internalType": "uint256",
          "name": "_id",
          "type": "uint256"
        }
      ],
      "name": "toggleCompleted",
      "outputs": [],
      "stateMutability": "nonpayable",
      "type": "function"
    }
  ],
  "bytecode": "0x6080604052600080553480156200001557600080fd5b506200005c6040518060400160405280601181526020017f4c697374206f6620746865207461736b730000000000000000000000000000008152506200006260201b60201c565b62000615565b600080815480929190620000769062000170565b919050555060405180606001604052806000548152602001828152602001600015158152506001600080548152602001908152602001600020600082015181600001556020820151816001019081620000d091906200042d565b5060408201518160020160006101000a81548160ff0219169083151502179055509050507f05d0fb833127fc08168556d0e7ca9554fc3f6bc843b3b7d2bf1c35aea6bab6606000548260006040516200012c93929190620005d1565b60405180910390a150565b7f4e487b7100000000000000000000000000000000000000000000000000000000600052601160045260246000fd5b6000819050919050565b60006200017d8262000166565b91507fffffffffffffffffffffffffffffffffffffffffffffffffffffffffffffffff8203620001b257620001b162000137565b5b600182019050919050565b600081519050919050565b7f4e487b7100000000000000000000000000000000000000000000000000000000600052604160045260246000fd5b7f4e487b7100000000000000000000000000000000000000000000000000000000600052602260045260246000fd5b600060028204905060018216806200023f57607f821691505b602082108103620002555762000254620001f7565b5b50919050565b60008190508160005260206000209050919050565b60006020601f8301049050919050565b600082821b905092915050565b600060088302620002bf7fffffffffffffffffffffffffffffffffffffffffffffffffffffffffffffffff8262000280565b620002cb868362000280565b95508019841693508086168417925050509392505050565b6000819050919050565b60006200030e62000308620003028462000166565b620002e3565b62000166565b9050919050565b6000819050919050565b6200032a83620002ed565b62000342620003398262000315565b8484546200028d565b825550505050565b600090565b620003596200034a565b620003668184846200031f565b505050565b5b818110156200038e57620003826000826200034f565b6001810190506200036c565b5050565b601f821115620003dd57620003a7816200025b565b620003b28462000270565b81016020851015620003c2578190505b620003da620003d18562000270565b8301826200036b565b50505b505050565b600082821c905092915050565b60006200040260001984600802620003e2565b1980831691505092915050565b60006200041d8383620003ef565b9150826002028217905092915050565b6200043882620001bd565b67ffffffffffffffff811115620004545762000453620001c8565b5b62000460825462000226565b6200046d82828562000392565b600060209050601f831160018114620004a5576000841562000490578287015190505b6200049c85826200040f565b8655506200050c565b601f198416620004b5866200025b565b60005b82811015620004df57848901518255600182019150602085019450602081019050620004b8565b86831015620004ff5784890151620004fb601f891682620003ef565b8355505b6001600288020188555050505b505050505050565b6200051f8162000166565b82525050565b600082825260208201905092915050565b60005b838110156200055657808201518184015260208101905062000539565b60008484015250505050565b6000601f19601f8301169050919050565b60006200058082620001bd565b6200058c818562000525565b93506200059e81856020860162000536565b620005a98162000562565b840191505092915050565b60008115159050919050565b620005cb81620005b4565b82525050565b6000606082019050620005e8600083018662000514565b8181036020830152620005fc818562000573565b90506200060d6040830184620005c0565b949350505050565b6109bc80620006256000396000f3fe608060405234801561001057600080fd5b506004361061004c5760003560e01c8063111002aa14610051578063455f50241461006d5780638d97767214610089578063b6cb58a5146100bb575b600080fd5b61006b6004803603810190610066919061045a565b6100d9565b005b610087600480360381019061008291906104d9565b6101a8565b005b6100a3600480360381019061009e91906104d9565b61023b565b6040516100b2939291906105af565b60405180910390f35b6100c36102fa565b6040516100d091906105ed565b60405180910390f35b6000808154809291906100eb90610637565b919050555060405180606001604052806000548152602001828152602001600015158152506001600080548152602001908152602001600020600082015181600001556020820151816001019081610143919061088b565b5060408201518160020160006101000a81548160ff0219169083151502179055509050507f05d0fb833127fc08168556d0e7ca9554fc3f6bc843b3b7d2bf1c35aea6bab66060005482600060405161019d939291906105af565b60405180910390a150565b60006001600083815260200190815260200160002090508060020160009054906101000a900460ff16158160020160006101000a81548160ff0219169083151502179055507fe21fa966ca5cd02748c0752352d18c48165e61cb55b4c29cccf924b5a95fcff1828260020160009054906101000a900460ff1660405161022f92919061095d565b60405180910390a15050565b6001602052806000526040600020600091509050806000015490806001018054610264906106ae565b80601f0160208091040260200160405190810160405280929190818152602001828054610290906106ae565b80156102dd5780601f106102b2576101008083540402835291602001916102dd565b820191906000526020600020905b8154815290600101906020018083116102c057829003601f168201915b5050505050908060020160009054906101000a900460ff16905083565b60005481565b6000604051905090565b600080fd5b600080fd5b600080fd5b600080fd5b6000601f19601f8301169050919050565b7f4e487b7100000000000000000000000000000000000000000000000000000000600052604160045260246000fd5b6103678261031e565b810181811067ffffffffffffffff821117156103865761038561032f565b5b80604052505050565b6000610399610300565b90506103a5828261035e565b919050565b600067ffffffffffffffff8211156103c5576103c461032f565b5b6103ce8261031e565b9050602081019050919050565b82818337600083830152505050565b60006103fd6103f8846103aa565b61038f565b90508281526020810184848401111561041957610418610319565b5b6104248482856103db565b509392505050565b600082601f83011261044157610440610314565b5b81356104518482602086016103ea565b91505092915050565b6000602082840312156104705761046f61030a565b5b600082013567ffffffffffffffff81111561048e5761048d61030f565b5b61049a8482850161042c565b91505092915050565b6000819050919050565b6104b6816104a3565b81146104c157600080fd5b50565b6000813590506104d3816104ad565b92915050565b6000602082840312156104ef576104ee61030a565b5b60006104fd848285016104c4565b91505092915050565b61050f816104a3565b82525050565b600081519050919050565b600082825260208201905092915050565b60005b8381101561054f578082015181840152602081019050610534565b60008484015250505050565b600061056682610515565b6105708185610520565b9350610580818560208601610531565b6105898161031e565b840191505092915050565b60008115159050919050565b6105a981610594565b82525050565b60006060820190506105c46000830186610506565b81810360208301526105d6818561055b565b90506105e560408301846105a0565b949350505050565b60006020820190506106026000830184610506565b92915050565b7f4e487b7100000000000000000000000000000000000000000000000000000000600052601160045260246000fd5b6000610642826104a3565b91507fffffffffffffffffffffffffffffffffffffffffffffffffffffffffffffffff820361067457610673610608565b5b600182019050919050565b7f4e487b7100000000000000000000000000000000000000000000000000000000600052602260045260246000fd5b600060028204905060018216806106c657607f821691505b6020821081036106d9576106d861067f565b5b50919050565b60008190508160005260206000209050919050565b60006020601f8301049050919050565b600082821b905092915050565b6000600883026107417fffffffffffffffffffffffffffffffffffffffffffffffffffffffffffffffff82610704565b61074b8683610704565b95508019841693508086168417925050509392505050565b6000819050919050565b600061078861078361077e846104a3565b610763565b6104a3565b9050919050565b6000819050919050565b6107a28361076d565b6107b66107ae8261078f565b848454610711565b825550505050565b600090565b6107cb6107be565b6107d6818484610799565b505050565b5b818110156107fa576107ef6000826107c3565b6001810190506107dc565b5050565b601f82111561083f57610810816106df565b610819846106f4565b81016020851015610828578190505b61083c610834856106f4565b8301826107db565b50505b505050565b600082821c905092915050565b600061086260001984600802610844565b1980831691505092915050565b600061087b8383610851565b9150826002028217905092915050565b61089482610515565b67ffffffffffffffff8111156108ad576108ac61032f565b5b6108b782546106ae565b6108c28282856107fe565b600060209050601f8311600181146108f557600084156108e3578287015190505b6108ed858261086f565b865550610955565b601f198416610903866106df565b60005b8281101561092b57848901518255600182019150602085019450602081019050610906565b868310156109485784890151610944601f891682610851565b8355505b6001600288020188555050505b505050505050565b60006040820190506109726000830185610506565b61097f60208301846105a0565b939250505056fea26469706673582212209aada6aaea8fbad1d6ec06c0537476459af18781b02542a7ae2e0c5e68c409fd64736f6c63430008180033",
  "linkReferences": {},
  "deployedLinkReferences": {}
}